:100800000D0A004163636F756E7420486F6C6465F8
:10081000723A20536974610D0A004163636F756E0B
:10082000742042616C616E63653A20313030303043
:100830000D0A004163636F756E7420486F6C6465C8
:10084000723A20476974610D0A004E6F2073756318
:1008500068206163636F756E742C20706C656173C2
:100860006520656E7465722076616C6964206465CC
:100870007461696C730D0A00456E74657220416D78
:100880006F756E7420696E2068756E64726564732E
:100890000D0A00496E76616C69640050726573736D
:1008A000204120666F72204163636F756E7420640F
:1008B0006973706C617920616E64205720666F7275
:1008C000207769746864726177696E672063617309
:1008D000680D0A0048656C6C6F2C20506C65617364
:1008E0006520656E746572204163636F756E742058
:1008F0006E756D6265720D0A005769746864726185
:10090000772073746174652C20656E746572206144
:1009100063636F756E74206E756D6265720D0A008B
:100C5200C101C100060E00000000000006080000ED
:100C62000000000003170000000314000000051A32
:050C720000000000007D
:100CB800758920758DF3759850D28ED2ACD2AF431A
:030CC80087802200
:1009F8008E268F278B288A29892A7C277D10120921
:100A08006DEF2430120939AE26AF277C277D1012EE
:100A1800096D7E037FE8CFCDCFCECCCE12096DEF26
:100A28002430AB28AA29A92A90000112094BAE2626
:100A3800AF277C037DE812096D7E007F64CFCDCFA0
:100A4800CECCCE12096DEF2430AB28AA29A92A9062
:100A5800000212094BAE26AF277C007D6412096D97
:100A68007E007F0ACFCDCFCECCCE12096DEF2430D9
:100A7800AB28AA29A92A90000312094BAE26AF2752
:100A88007C007D0A12096DED2430AB28AA29A92A19
:060A980090000402094B6E
:100B84008E2B8F2C8B2D8A2E892F7C007D0A1209A7
:100B94006D7E007F0ACFCDCFCECCCE12096DEF246F
:100BA40030120939AE2BAF2C7C007D0A12096DED91
:0E0BB4002430AB2DAA2EA92F90000102094B70
:080CE5008F993001FDC20122CC
:060C27007BFF7A087978DA
:100C2D008B268A278928AB26AA27A9281209206096
:100C3D00130528E5287002052714F9120920FF1263
:050C4D000CE580E2222D
:090CDB00E4FF3000FDC200AF99F6
:010CE40022ED
:03002300020CCB01
:100CCB00309905C299D20132309804C298D20032C1
:100C7800E4FDFCC3ED9FEC9E5015E4FBFA0BBB00B2
:0F0C8800010ABA01F8BB7EF50DBD00010C80E436
:010C9700223A
:100B2A00120CDBEF75F064A485F022F523E4F524BA
:100B3A00F525AE22AF237C017DF41209C27B007A2F
:100B4A000079241209F8AE22AF237C017DF4120940
:100B5A00C27E007F64CFCDCFCECCCE1209C27B003D
:100B6A007A0079251209F8AF24120CE57BFF7A087E
:0A0B7A007900120C2DAF25020CE5E6
:100BF900120CDBEF24CE600B0470197BFF7A0879A5
:100C09000380067BFF7A087933120C2D7BFF7A0863
:0D0C1900791A80067BFF7A08794A120C2DAB
:010C260022AB
:100C9800120CDBEF24CE600904700C120C27120B27
:100CA8002A120C27120B2A7BFF7A087993020C2D43
:0C0BC200120CB87BFF7A08799B120C2DF6
:100BCE00120CDB8F21E52124A96012241670F17B13
:100BDE00FF7A0879D4120C2D120BF980E37BFF7A81
:090BEE000879F9120C2D120C9883
:020BF70080D5A7
:03000000020A9E53
:0C0A9E00787FE4F6D8FD75812F020AE590
:10092000BB010689828A83E0225002E722BBFE02D5
:09093000E32289828A83E4932208
:10093900BB010689828A83F0225002F722BBFE019D
:02094900F32297
:10094B00F8BB010DE58229F582E5833AF583E8F0E2
:10095B00225006E92582C8F622BBFE05E92582C88E
:02096B00F22276
:10096D00BC000BBE0029EF8DF084FFADF022E4CC6E
:10097D00F875F008EF2FFFEE33FEEC33FCEE9DEC37
:10098D00984005FCEE9DFE0FD5F0E9E4CEFD22ED7D
:10099D00F8F5F0EE8420D21CFEADF075F008EF2FC7
:1009AD00FFED33FD4007985006D5F0F222C398FDB8
:0509BD000FD5F0EA2255
:1009C200C2D5EC30E709B2D5E4C39DFDE49CFCEE50
:1009D20030E715B2D5E4C39FFFE49EFE12096DC352
:1009E200E49DFDE49CFC800312096D30D507C3E44D
:0609F2009FFFE49EFE22BF
:100AAA00020BC2E493A3F8E493A34003F68001F295
:100ABA0008DFF48029E493A3F85407240CC8C3334D
:100ACA00C4540F4420C8834004F456800146F6DF1C
:100ADA00E4800B0102040810204080900C52E47E4E
:100AEA00019360BCA3FF543F30E509541FFEE49311
:100AFA00A360010ECF54C025E060A840B8E493A3D8
:100B0A00FAE493A3F8E493A3C8C582C8CAC583CA02
:100B1A00F0A3C8C582C8CAC583CADFE9DEE780BEBA
:010C7700007C
:00000001FF
