:10086400E4F5A0C282C280C2817F38FE12094E7FA5
:10087400047E001208BC7F067E0012094E7F047EAF
:10088400001208BC7F0C7E0012094E7F047E001209
:1008940008BC7F017E0012094E7F047E001208BC52
:0708A4007F807E0002094E77
:1008AB0012091A7FE87E031208BC1209327FE87E18
:0108BB000339
:1008BC00E4FDFCC3ED9FEC9E5015E4FBFA0BBB0072
:0F08CC00010ABA01F8BB7EF50DBD00010C80E4F6
:0108DB0022FA
:04094A007F877E0025
:10094E00C280C281D2828FA07F0A7E001208BCC2F2
:02095E008222F3
:10096000D280C281D2828FA07F0A7E001208BCC2D0
:020970008222E1
:1008DC008B088A09890AAB08AA09A90A12090160BE
:1008EC0013050AE50A7002050914F9120901FF1231
:0508FC00096080E2220A
:10091A00900000B2877F017E001208BCA3E582B472
:07092A00DCF1E583B405ECEC
:0109310022A3
:10093200900000B2877F017E001208BCA3E582B45A
:07094200EEF1E583B402ECC5
:01094900228B
:060993001208B502091A6A
:09098A001208AB1208B502093293
:0C0972001208AB12091A1208B802093270
:060999001208AB02093256
:03099F0002093218
:10080000120864A2909200A2919201A2929202A276
:1008100093920330000D12094A7F411209601209B8
:1008200093803F30010D12094A7F4212096012097C
:100830008A802F30020D12094A7F43120960120983
:1008400072801F7F877E0030030D12094E7F441295
:100850000960120999800B12094E7F451209601236
:04086000099F80FE6E
:0300000002097E74
:0C097E00787FE4F6D8FD758120020800A7
:10090100BB010689828A83E0225002E722BBFE02F4
:09091100E32289828A83E4932227
:00000001FF
